:10086300204649524520414C4552542000202053F4
:10087300595354454D202000464952452044455480
:060883004543544544000A
:10080000C2B0C2901208AC7BFF7A087963120889E3
:100810007FC01208D47BFF7A087970120889120809
:10082000C53090E07F011208D47BFF7A08797B12F3
:060830000889D2B080CE61
:1008AC007F381208D47F011208D47F101208D47F2D
:0908BC000C1208D47F800208D45C
:0E08D4008FA0C291C292D2931208C5C2932285
:0E08E2008FA0D291C292D2931208C5C2932267
:060889008B088A09890AB0
:10088F00E4F50BAB08AA09A90A850B827583001240
:0C089F000836FF60071208E2050B80E736
:0108AB00222A
:0E08C500E4FFFE0FBF00010EBE27F8BF10F5C6
:0108D3002202
:030000000208F003
:0C08F000787FE4F6D8FD75810B0208004B
:10083600BB010CE58229F582E5833AF583E0225077
:1008460006E92582F8E622BBFE06E92582F8E222C1
:0D085600E58229F582E5833AF583E49322DB
:00000001FF
